{"abi":[{"type":"constructor","inputs":[{"name":"_minimumDeposit","type":"uint256","internalType":"uint256"},{"name":"_votingPeriodInDays","type":"uint256","internalType":"uint256"}],"stateMutability":"nonpayable"},{"type":"function","name":"createProposal","inputs":[{"name":"description","type":"string","internalType":"string"},{"name":"amount","type":"uint256","internalType":"uint256"},{"name":"target","type":"address","internalType":"address payable"}],"outputs":[],"stateMutability":"nonpayable"},{"type":"function","name":"deposit","inputs":[],"outputs":[],"stateMutability":"payable"},{"type":"function","name":"executeProposal","inputs":[{"name":"proposalId","type":"uint256","internalType":"uint256"}],"outputs":[],"stateMutability":"nonpayable"},{"type":"function","name":"getMemberInfo","inputs":[{"name":"member","type":"address","internalType":"address"}],"outputs":[{"name":"depositAmount","type":"uint256","internalType":"uint256"},{"name":"joinedAt","type":"uint256","internalType":"uint256"}],"stateMutability":"view"},{"type":"function","name":"getProposal","inputs":[{"name":"proposalId","type":"uint256","internalType":"uint256"}],"outputs":[{"name":"description","type":"string","internalType":"string"},{"name":"yesVotesQuadratic","type":"uint256","internalType":"uint256"},{"name":"endTime","type":"uint256","internalType":"uint256"},{"name":"executed","type":"bool","internalType":"bool"},{"name":"amount","type":"uint256","internalType":"uint256"},{"name":"target","type":"address","internalType":"address"}],"stateMutability":"view"},{"type":"function","name":"members","inputs":[{"name":"","type":"address","internalType":"address"}],"outputs":[{"name":"depositAmount","type":"uint256","internalType":"uint256"},{"name":"joinedAt","type":"uint256","internalType":"uint256"}],"stateMutability":"view"},{"type":"function","name":"minimumDeposit","inputs":[],"outputs":[{"name":"","type":"uint256","internalType":"uint256"}],"stateMutability":"view"},{"type":"function","name":"proposalCount","inputs":[],"outputs":[{"name":"","type":"uint256","internalType":"uint256"}],"stateMutability":"view"},{"type":"function","name":"proposals","inputs":[{"name":"","type":"uint256","internalType":"uint256"}],"outputs":[{"name":"description","type":"string","internalType":"string"},{"name":"yesVotes","type":"uint256","internalType":"uint256"},{"name":"endTime","type":"uint256","internalType":"uint256"},{"name":"executed","type":"bool","internalType":"bool"},{"name":"amount","type":"uint256","internalType":"uint256"},{"name":"target","type":"address","internalType":"address payable"}],"stateMutability":"view"},{"type":"function","name":"totalDeposits","inputs":[],"outputs":[{"name":"","type":"uint256","internalType":"uint256"}],"stateMutability":"view"},{"type":"function","name":"vote","inputs":[{"name":"proposalId","type":"uint256","internalType":"uint256"}],"outputs":[],"stateMutability":"nonpayable"},{"type":"function","name":"votingPeriod","inputs":[],"outputs":[{"name":"","type":"uint256","internalType":"uint256"}],"stateMutability":"view"},{"type":"event","name":"Deposited","inputs":[{"name":"member","type":"address","indexed":true,"internalType":"address"},{"name":"amount","type":"uint256","indexed":false,"internalType":"uint256"}],"anonymous":false},{"type":"event","name":"ProposalCreated","inputs":[{"name":"proposalId","type":"uint256","indexed":true,"internalType":"uint256"},{"name":"description","type":"string","indexed":false,"internalType":"string"},{"name":"endTime","type":"uint256","indexed":false,"internalType":"uint256"}],"anonymous":false},{"type":"event","name":"ProposalExecuted","inputs":[{"name":"proposalId","type":"uint256","indexed":true,"internalType":"uint256"}],"anonymous":false},{"type":"event","name":"Voted","inputs":[{"name":"proposalId","type":"uint256","indexed":true,"internalType":"uint256"},{"name":"voter","type":"address","indexed":true,"internalType":"address"},{"name":"support","type":"bool","indexed":false,"internalType":"bool"}],"anonymous":false}],"bytecode":{"object":"0x608060405234801561000f575f80fd5b50604051611db5380380611db58339818101604052810190610031919061008b565b81600381905550620151808161004791906100f6565b6004819055505050610137565b5f80fd5b5f819050919050565b61006a81610058565b8114610074575f80fd5b50565b5f8151905061008581610061565b92915050565b5f80604083850312156100a1576100a0610054565b5b5f6100ae85828601610077565b92505060206100bf85828601610077565b9150509250929050565b7f4e487b71000000000000000000000000000000000000000000000000000000005f52601160045260245ffd5b5f61010082610058565b915061010b83610058565b925082820261011981610058565b915082820484148315176101305761012f6100c9565b5b5092915050565b611c71806101445f395ff3fe6080604052600436106100a6575f3560e01c8063636bfbab11610063578063636bfbab146101df5780636ac1e01f146102095780637d88209714610231578063c7f758a81461025b578063d0e30db01461029c578063da35c664146102a6576100a6565b80630121b93f146100aa578063013cf08b146100d257806302a251a31461011357806308ae4b0c1461013d5780630d61b5191461017a5780635f1231ea146101a2575b5f80fd5b3480156100b5575f80fd5b506100d060048036038101906100cb9190610eb4565b6102d0565b005b3480156100dd575f80fd5b506100f860048036038101906100f39190610eb4565b610598565b60405161010a96959493929190610fb7565b60405180910390f35b34801561011e575f80fd5b50610127610680565b604051610134919061101d565b60405180910390f35b348015610148575f80fd5b50610163600480360381019061015e9190611071565b610686565b60405161017192919061109c565b60405180910390f35b348015610185575f80fd5b506101a0600480360381019061019b9190610eb4565b6106a6565b005b3480156101ad575f80fd5b506101c860048036038101906101c39190611071565b61093e565b6040516101d692919061109c565b60405180910390f35b3480156101ea575f80fd5b506101f36109ca565b604051610200919061101d565b60405180910390f35b348015610214575f80fd5b5061022f600480360381019061022a9190611219565b6109d0565b005b34801561023c575f80fd5b50610245610b63565b604051610252919061101d565b60405180910390f35b348015610266575f80fd5b50610281600480360381019061027c9190610eb4565b610b69565b60405161029396959493929190611294565b60405180910390f35b6102a4610c6a565b005b3480156102b1575f80fd5b506102ba610df9565b6040516102c7919061101d565b60405180910390f35b5f60015f3373ffffffffffffffffffffffffffffffffffffffff1673ffffffffffffffffffffffffffffffffffffffff1681526020019081526020015f205f015411610351576040517f08c379a000000000000000000000000000000000000000000000000000000000815260040161034890611344565b60405180910390fd5b5f805f8381526020019081526020015f209050806002015442106103aa576040517f08c379a00000000000000000000000000000000000000000000000000000000081526004016103a1906113ac565b60405180910390fd5b806006015f3373ffffffffffffffffffffffffffffffffffffffff1673ffffffffffffffffffffffffffffffffffffffff1681526020019081526020015f205f9054906101000a900460ff1615610436576040517f08c379a000000000000000000000000000000000000000000000000000000000815260040161042d90611414565b60405180910390fd5b806003015f9054906101000a900460ff1615610487576040517f08c379a000000000000000000000000000000000000000000000000000000000815260040161047e9061147c565b60405180910390fd5b6001816006015f3373ffffffffffffffffffffffffffffffffffffffff1673ffffffffffffffffffffffffffffffffffffffff1681526020019081526020015f205f6101000a81548160ff0219169083151502179055505f61052760015f3373ffffffffffffffffffffffffffffffffffffffff1673ffffffffffffffffffffffffffffffffffffffff1681526020019081526020015f205f0154610dff565b905080826001015f82825461053c91906114c7565b925050819055503373ffffffffffffffffffffffffffffffffffffffff16837ff2913dbe661ee2acc4a046d8fbcdc792373bda34c41c6086484b5345e5785e5f600160405161058b91906114fa565b60405180910390a3505050565b5f602052805f5260405f205f91509050805f0180546105b690611540565b80601f01602080910402602001604051908101604052809291908181526020018280546105e290611540565b801561062d5780601f106106045761010080835404028352916020019161062d565b820191905f5260205f20905b81548152906001019060200180831161061057829003601f168201915b505050505090806001015490806002015490806003015f9054906101000a900460ff1690806004015490806005015f9054906101000a900473ffffffffffffffffffffffffffffffffffffffff16905086565b60045481565b6001602052805f5260405f205f91509050805f0154908060010154905082565b5f805f8381526020019081526020015f2090508060020154421015610700576040517f08c379a00000000000000000000000000000000000000000000000000000000081526004016106f7906115ba565b60405180910390fd5b806003015f9054906101000a900460ff1615610751576040517f08c379a00000000000000000000000000000000000000000000000000000000081526004016107489061147c565b60405180910390fd5b5f61075d600554610dff565b905060338161076c91906115d8565b6064836001015461077d91906115d8565b116107bd576040517f08c379a00000000000000000000000000000000000000000000000000000000081526004016107b490611663565b60405180910390fd5b8160040154471015610804576040517f08c379a00000000000000000000000000000000000000000000000000000000081526004016107fb906116cb565b60405180910390fd5b6001826003015f6101000a81548160ff021916908315150217905550816004015460055f82825461083591906116e9565b925050819055505f826005015f9054906101000a900473ffffffffffffffffffffffffffffffffffffffff1673ffffffffffffffffffffffffffffffffffffffff16836004015460405161088890611749565b5f6040518083038185875af1925050503d805f81146108c2576040519150601f19603f3d011682016040523d82523d5f602084013e6108c7565b606091505b505090508061090b576040517f08c379a0000000000000000000000000000000000000000000000000000000008152600401610902906117a7565b60405180910390fd5b837f712ae1383f79ac853f8d882153778e0260ef8f03b504e2866e0593e04d2b291f60405160405180910390a250505050565b5f8060015f8473ffffffffffffffffffffffffffffffffffffffff1673ffffffffffffffffffffffffffffffffffffffff1681526020019081526020015f205f015460015f8573ffffffffffffffffffffffffffffffffffffffff1673ffffffffffffffffffffffffffffffffffffffff1681526020019081526020015f206001015491509150915091565b60035481565b5f8211610a12576040517f08c379a0000000000000000000000000000000000000000000000000000000008152600401610a099061180f565b60405180910390fd5b5f73ffffffffffffffffffffffffffffffffffffffff168173ffffffffffffffffffffffffffffffffffffffff1603610a80576040517f08c379a0000000000000000000000000000000000000000000000000000000008152600401610a7790611877565b60405180910390fd5b5f60025f815480929190610a9390611895565b9190505590505f805f8381526020019081526020015f20905084815f019081610abc9190611a79565b5060045442610acb91906114c7565b816002018190555083816004018190555082816005015f6101000a81548173ffffffffffffffffffffffffffffffffffffffff021916908373ffffffffffffffffffffffffffffffffffffffff160217905550817ff5dc0da9afa6d080780a49fd8c680f03d2ddf3c067cd6d0c85360c096644d2d3868360020154604051610b54929190611b48565b60405180910390a25050505050565b60055481565b60605f805f805f805f808981526020019081526020015f209050805f0181600101548260020154836003015f9054906101000a900460ff168460040154856005015f9054906101000a900473ffffffffffffffffffffffffffffffffffffffff16858054610bd690611540565b80601f0160208091040260200160405190810160405280929190818152602001828054610c0290611540565b8015610c4d5780601f10610c2457610100808354040283529160200191610c4d565b820191905f5260205f20905b815481529060010190602001808311610c3057829003601f168201915b505050505095509650965096509650965096505091939550919395565b600354341015610caf576040517f08c379a0000000000000000000000000000000000000000000000000000000008152600401610ca690611bc0565b60405180910390fd5b3460015f3373ffffffffffffffffffffffffffffffffffffffff1673ffffffffffffffffffffffffffffffffffffffff1681526020019081526020015f205f015f828254610cfd91906114c7565b925050819055505f60015f3373ffffffffffffffffffffffffffffffffffffffff1673ffffffffffffffffffffffffffffffffffffffff1681526020019081526020015f206001015403610d91574260015f3373ffffffffffffffffffffffffffffffffffffffff1673ffffffffffffffffffffffffffffffffffffffff1681526020019081526020015f20600101819055505b3460055f828254610da291906114c7565b925050819055503373ffffffffffffffffffffffffffffffffffffffff167f2da466a7b24304f47e87fa2e1e5a81b9831ce54fec19055ce277ca2f39ba42c434604051610def919061101d565b60405180910390a2565b60025481565b5f808203610e0f575f9050610e6b565b5f6002600184610e1f91906114c7565b610e299190611c0b565b90505f8390505b80821015610e65578190506002828386610e4a9190611c0b565b610e5491906114c7565b610e5e9190611c0b565b9150610e30565b80925050505b919050565b5f604051905090565b5f80fd5b5f80fd5b5f819050919050565b610e9381610e81565b8114610e9d575f80fd5b50565b5f81359050610eae81610e8a565b92915050565b5f60208284031215610ec957610ec8610e79565b5b5f610ed684828501610ea0565b91505092915050565b5f81519050919050565b5f82825260208201905092915050565b8281835e5f83830152505050565b5f601f19601f8301169050919050565b5f610f2182610edf565b610f2b8185610ee9565b9350610f3b818560208601610ef9565b610f4481610f07565b840191505092915050565b610f5881610e81565b82525050565b5f8115159050919050565b610f7281610f5e565b82525050565b5f73ffffffffffffffffffffffffffffffffffffffff82169050919050565b5f610fa182610f78565b9050919050565b610fb181610f97565b82525050565b5f60c0820190508181035f830152610fcf8189610f17565b9050610fde6020830188610f4f565b610feb6040830187610f4f565b610ff86060830186610f69565b6110056080830185610f4f565b61101260a0830184610fa8565b979650505050505050565b5f6020820190506110305f830184610f4f565b92915050565b5f61104082610f78565b9050919050565b61105081611036565b811461105a575f80fd5b50565b5f8135905061106b81611047565b92915050565b5f6020828403121561108657611085610e79565b5b5f6110938482850161105d565b91505092915050565b5f6040820190506110af5f830185610f4f565b6110bc6020830184610f4f565b9392505050565b5f80fd5b5f80fd5b7f4e487b71000000000000000000000000000000000000000000000000000000005f52604160045260245ffd5b61110182610f07565b810181811067ffffffffffffffff821117156111205761111f6110cb565b5b80604052505050565b5f611132610e70565b905061113e82826110f8565b919050565b5f67ffffffffffffffff82111561115d5761115c6110cb565b5b61116682610f07565b9050602081019050919050565b828183375f83830152505050565b5f61119361118e84611143565b611129565b9050828152602081018484840111156111af576111ae6110c7565b5b6111ba848285611173565b509392505050565b5f82601f8301126111d6576111d56110c3565b5b81356111e6848260208601611181565b91505092915050565b6111f881610f97565b8114611202575f80fd5b50565b5f81359050611213816111ef565b92915050565b5f805f606084860312156112305761122f610e79565b5b5f84013567ffffffffffffffff81111561124d5761124c610e7d565b5b611259868287016111c2565b935050602061126a86828701610ea0565b925050604061127b86828701611205565b9150509250925092565b61128e81611036565b82525050565b5f60c0820190508181035f8301526112ac8189610f17565b90506112bb6020830188610f4f565b6112c86040830187610f4f565b6112d56060830186610f69565b6112e26080830185610f4f565b6112ef60a0830184611285565b979650505050505050565b7f4e6f7420616e20696e766573746f7200000000000000000000000000000000005f82015250565b5f61132e600f83610ee9565b9150611339826112fa565b602082019050919050565b5f6020820190508181035f83015261135b81611322565b9050919050565b7f566f74696e6720706572696f6420656e646564000000000000000000000000005f82015250565b5f611396601383610ee9565b91506113a182611362565b602082019050919050565b5f6020820190508181035f8301526113c38161138a565b9050919050565b7f416c726561647920766f746564000000000000000000000000000000000000005f82015250565b5f6113fe600d83610ee9565b9150611409826113ca565b602082019050919050565b5f6020820190508181035f83015261142b816113f2565b9050919050565b7f50726f706f73616c20616c7265616479206578656375746564000000000000005f82015250565b5f611466601983610ee9565b915061147182611432565b602082019050919050565b5f6020820190508181035f8301526114938161145a565b9050919050565b7f4e487b71000000000000000000000000000000000000000000000000000000005f52601160045260245ffd5b5f6114d182610e81565b91506114dc83610e81565b92508282019050808211156114f4576114f361149a565b5b92915050565b5f60208201905061150d5f830184610f69565b92915050565b7f4e487b71000000000000000000000000000000000000000000000000000000005f52602260045260245ffd5b5f600282049050600182168061155757607f821691505b60208210810361156a57611569611513565b5b50919050565b7f566f74696e6720706572696f64206e6f7420656e6465640000000000000000005f82015250565b5f6115a4601783610ee9565b91506115af82611570565b602082019050919050565b5f6020820190508181035f8301526115d181611598565b9050919050565b5f6115e282610e81565b91506115ed83610e81565b92508282026115fb81610e81565b915082820484148315176116125761161161149a565b5b5092915050565b7f496e73756666696369656e7420766f74657300000000000000000000000000005f82015250565b5f61164d601283610ee9565b915061165882611619565b602082019050919050565b5f6020820190508181035f83015261167a81611641565b9050919050565b7f496e73756666696369656e742044414f2062616c616e636500000000000000005f82015250565b5f6116b5601883610ee9565b91506116c082611681565b602082019050919050565b5f6020820190508181035f8301526116e2816116a9565b9050919050565b5f6116f382610e81565b91506116fe83610e81565b92508282039050818111156117165761171561149a565b5b92915050565b5f81905092915050565b50565b5f6117345f8361171c565b915061173f82611726565b5f82019050919050565b5f61175382611729565b9150819050919050565b7f5472616e73666572206661696c656400000000000000000000000000000000005f82015250565b5f611791600f83610ee9565b915061179c8261175d565b602082019050919050565b5f6020820190508181035f8301526117be81611785565b9050919050565b7f416d6f756e74206d7573742062652067726561746572207468616e20300000005f82015250565b5f6117f9601d83610ee9565b9150611804826117c5565b602082019050919050565b5f6020820190508181035f830152611826816117ed565b9050919050565b7f496e76616c6964207461726765742061646472657373000000000000000000005f82015250565b5f611861601683610ee9565b915061186c8261182d565b602082019050919050565b5f6020820190508181035f83015261188e81611855565b9050919050565b5f61189f82610e81565b91507fffffffffffffffffffffffffffffffffffffffffffffffffffffffffffffffff82036118d1576118d061149a565b5b600182019050919050565b5f819050815f5260205f209050919050565b5f6020601f8301049050919050565b5f82821b905092915050565b5f600883026119387fffffffffffffffffffffffffffffffffffffffffffffffffffffffffffffffff826118fd565b61194286836118fd565b95508019841693508086168417925050509392505050565b5f819050919050565b5f61197d61197861197384610e81565b61195a565b610e81565b9050919050565b5f819050919050565b61199683611963565b6119aa6119a282611984565b848454611909565b825550505050565b5f90565b6119be6119b2565b6119c981848461198d565b505050565b5b818110156119ec576119e15f826119b6565b6001810190506119cf565b5050565b601f821115611a3157611a02816118dc565b611a0b846118ee565b81016020851015611a1a578190505b611a2e611a26856118ee565b8301826119ce565b50505b505050565b5f82821c905092915050565b5f611a515f1984600802611a36565b1980831691505092915050565b5f611a698383611a42565b9150826002028217905092915050565b611a8282610edf565b67ffffffffffffffff811115611a9b57611a9a6110cb565b5b611aa58254611540565b611ab08282856119f0565b5f60209050601f831160018114611ae1575f8415611acf578287015190505b611ad98582611a5e565b865550611b40565b601f198416611aef866118dc565b5f5b82811015611b1657848901518255600182019150602085019450602081019050611af1565b86831015611b335784890151611b2f601f891682611a42565b8355505b6001600288020188555050505b505050505050565b5f6040820190508181035f830152611b608185610f17565b9050611b6f6020830184610f4f565b9392505050565b7f4465706f73697420616d6f756e7420746f6f206c6f77000000000000000000005f82015250565b5f611baa601683610ee9565b9150611bb582611b76565b602082019050919050565b5f6020820190508181035f830152611bd781611b9e565b9050919050565b7f4e487b71000000000000000000000000000000000000000000000000000000005f52601260045260245ffd5b5f611c1582610e81565b9150611c2083610e81565b925082611c3057611c2f611bde565b5b82820490509291505056fea264697066735822122000b3ff6dbad9c6cb05717ecb84157d4bf914fbf01ecb0647c35b4b1a94df358f64736f6c634300081a0033","linkReferences":{}},"methodIdentifiers":{"createProposal(string,uint256,address)":"6ac1e01f","deposit()":"d0e30db0","executeProposal(uint256)":"0d61b519","getMemberInfo(address)":"5f1231ea","getProposal(uint256)":"c7f758a8","members(address)":"08ae4b0c","minimumDeposit()":"636bfbab","proposalCount()":"da35c664","proposals(uint256)":"013cf08b","totalDeposits()":"7d882097","vote(uint256)":"0121b93f","votingPeriod()":"02a251a3"},"id":19}